{
  "contractName": "ApplicationEntity",
  "abi": [
    {
      "constant": true,
      "inputs": [],
      "name": "getTimestamp",
      "outputs": [
        {
          "name": "",
          "type": "uint256"
        }
      ],
      "payable": false,
      "stateMutability": "view",
      "type": "function"
    },
    {
      "constant": true,
      "inputs": [],
      "name": "BountyManagerEntity",
      "outputs": [
        {
          "name": "",
          "type": "address"
        }
      ],
      "payable": false,
      "stateMutability": "view",
      "type": "function"
    },
    {
      "constant": true,
      "inputs": [],
      "name": "_locked",
      "outputs": [
        {
          "name": "",
          "type": "bool"
        }
      ],
      "payable": false,
      "stateMutability": "view",
      "type": "function"
    },
    {
      "constant": true,
      "inputs": [],
      "name": "_initialized",
      "outputs": [
        {
          "name": "",
          "type": "bool"
        }
      ],
      "payable": false,
      "stateMutability": "view",
      "type": "function"
    },
    {
      "constant": true,
      "inputs": [],
      "name": "MilestonesEntity",
      "outputs": [
        {
          "name": "",
          "type": "address"
        }
      ],
      "payable": false,
      "stateMutability": "view",
      "type": "function"
    },
    {
      "constant": true,
      "inputs": [],
      "name": "ListingContractEntity",
      "outputs": [
        {
          "name": "",
          "type": "address"
        }
      ],
      "payable": false,
      "stateMutability": "view",
      "type": "function"
    },
    {
      "constant": true,
      "inputs": [],
      "name": "AssetCollectionNum",
      "outputs": [
        {
          "name": "",
          "type": "uint8"
        }
      ],
      "payable": false,
      "stateMutability": "view",
      "type": "function"
    },
    {
      "constant": true,
      "inputs": [],
      "name": "TokenManagerEntity",
      "outputs": [
        {
          "name": "",
          "type": "address"
        }
      ],
      "payable": false,
      "stateMutability": "view",
      "type": "function"
    },
    {
      "constant": true,
      "inputs": [],
      "name": "anyAssetHasChanges",
      "outputs": [
        {
          "name": "",
          "type": "bool"
        }
      ],
      "payable": false,
      "stateMutability": "view",
      "type": "function"
    },
    {
      "constant": true,
      "inputs": [],
      "name": "FundingManagerEntity",
      "outputs": [
        {
          "name": "",
          "type": "address"
        }
      ],
      "payable": false,
      "stateMutability": "view",
      "type": "function"
    },
    {
      "constant": true,
      "inputs": [],
      "name": "CurrentEntityState",
      "outputs": [
        {
          "name": "",
          "type": "uint8"
        }
      ],
      "payable": false,
      "stateMutability": "view",
      "type": "function"
    },
    {
      "constant": true,
      "inputs": [],
      "name": "ProposalsEntity",
      "outputs": [
        {
          "name": "",
          "type": "address"
        }
      ],
      "payable": false,
      "stateMutability": "view",
      "type": "function"
    },
    {
      "constant": true,
      "inputs": [],
      "name": "getParentAddress",
      "outputs": [
        {
          "name": "",
          "type": "address"
        }
      ],
      "payable": false,
      "stateMutability": "view",
      "type": "function"
    },
    {
      "constant": true,
      "inputs": [],
      "name": "GatewayInterfaceAddress",
      "outputs": [
        {
          "name": "",
          "type": "address"
        }
      ],
      "payable": false,
      "stateMutability": "view",
      "type": "function"
    },
    {
      "constant": true,
      "inputs": [],
      "name": "FundingEntity",
      "outputs": [
        {
          "name": "",
          "type": "address"
        }
      ],
      "payable": false,
      "stateMutability": "view",
      "type": "function"
    },
    {
      "constant": true,
      "inputs": [],
      "name": "MeetingsEntity",
      "outputs": [
        {
          "name": "",
          "type": "address"
        }
      ],
      "payable": false,
      "stateMutability": "view",
      "type": "function"
    },
    {
      "constant": true,
      "inputs": [],
      "name": "NewsContractEntity",
      "outputs": [
        {
          "name": "",
          "type": "address"
        }
      ],
      "payable": false,
      "stateMutability": "view",
      "type": "function"
    },
    {
      "constant": true,
      "inputs": [],
      "name": "deployerAddress",
      "outputs": [
        {
          "name": "",
          "type": "address"
        }
      ],
      "payable": false,
      "stateMutability": "view",
      "type": "function"
    },
    {
      "constant": true,
      "inputs": [],
      "name": "hasRequiredStateChanges",
      "outputs": [
        {
          "name": "",
          "type": "bool"
        }
      ],
      "payable": false,
      "stateMutability": "view",
      "type": "function"
    }
  ],
  "bytecode": "0x6080604052635b8bc24f60005573766d1f049ba649f9a89ae417ba555599a6546b5a600160006101000a81548173ffffffffffffffffffffffffffffffffffffffff021916908373ffffffffffffffffffffffffffffffffffffffff1602179055506000600160146101000a81548160ff02191690831515021790555060018060156101000a81548160ff02191690831515021790555073b4e8d821b5b43fca08f5986d9b52a8dc00565cc5600260006101000a81548173ffffffffffffffffffffffffffffffffffffffff021916908373ffffffffffffffffffffffffffffffffffffffff160217905550735f03b7561e62efdab8b2fb740d83630d4d2710d7600360006101000a81548173ffffffffffffffffffffffffffffffffffffffff021916908373ffffffffffffffffffffffffffffffffffffffff1602179055506009600360146101000a81548160ff021916908360ff16021790555073584af734a101538cad9b9522d1b9c87f1c08f9c4600460006101000a81548173ffffffffffffffffffffffffffffffffffffffff021916908373ffffffffffffffffffffffffffffffffffffffff1602179055506000600460146101000a81548160ff02191690831515021790555073b4007597da3402a1e2b69c8e1c6dd753d01a8035600560006101000a81548173ffffffffffffffffffffffffffffffffffffffff021916908373ffffffffffffffffffffffffffffffffffffffff1602179055506096600560146101000a81548160ff021916908360ff160217905550735b2db92a43aa86fff2d9a3696a7ee264d03fc907600660006101000a81548173ffffffffffffffffffffffffffffffffffffffff021916908373ffffffffffffffffffffffffffffffffffffffff160217905550733dfa93d0d80c9985c9c78ce3620bd0803767a95c600760006101000a81548173ffffffffffffffffffffffffffffffffffffffff021916908373ffffffffffffffffffffffffffffffffffffffff160217905550733dfa93d0d80c9985c9c78ce3620bd0803767a95c600860006101000a81548173ffffffffffffffffffffffffffffffffffffffff021916908373ffffffffffffffffffffffffffffffffffffffff1602179055507358534c480ef96b6478940f9bbf6748da8f2ec935600960006101000a81548173ffffffffffffffffffffffffffffffffffffffff021916908373ffffffffffffffffffffffffffffffffffffffff16021790555073b435c8dd6edd82918606f0b2d73970683806b004600a60006101000a81548173ffffffffffffffffffffffffffffffffffffffff021916908373ffffffffffffffffffffffffffffffffffffffff160217905550737d88463cc6d0ba403d302204236898414db3251a600b60006101000a81548173ffffffffffffffffffffffffffffffffffffffff021916908373ffffffffffffffffffffffffffffffffffffffff160217905550733a0d088acfbd75fcf182a3b25d470492952dc704600c60006101000a81548173ffffffffffffffffffffffffffffffffffffffff021916908373ffffffffffffffffffffffffffffffffffffffff1602179055506000600c60146101000a81548160ff0219169083151502179055503480156104b757600080fd5b506108d5806104c76000396000f300608060405260043610610107576000357c0100000000000000000000000000000000000000000000000000000000900463ffffffff168063188ec3561461010c57806319ee5bca14610137578063223fcbc91461018e5780633072cf60146101bd57806330f75890146101ec578063385fbe24146102435780634073002e1461029a57806351fc6f59146102cb57806357945e3e146103225780636ad49245146103515780637278d623146103a8578063919baade146103d957806391fa055514610430578063961ffc6814610487578063b37edb66146104de578063b8109e1a14610535578063e8be2e8e1461058c578063efdee94f146105e3578063fa9d23521461063a575b600080fd5b34801561011857600080fd5b50610121610669565b6040518082815260200191505060405180910390f35b34801561014357600080fd5b5061014c61066f565b604051808273ffffffffffffffffffffffffffffffffffffffff1673ffffffffffffffffffffffffffffffffffffffff16815260200191505060405180910390f35b34801561019a57600080fd5b506101a3610695565b604051808215151515815260200191505060405180910390f35b3480156101c957600080fd5b506101d26106a8565b604051808215151515815260200191505060405180910390f35b3480156101f857600080fd5b506102016106bb565b604051808273ffffffffffffffffffffffffffffffffffffffff1673ffffffffffffffffffffffffffffffffffffffff16815260200191505060405180910390f35b34801561024f57600080fd5b506102586106e1565b604051808273ffffffffffffffffffffffffffffffffffffffff1673ffffffffffffffffffffffffffffffffffffffff16815260200191505060405180910390f35b3480156102a657600080fd5b506102af610707565b604051808260ff1660ff16815260200191505060405180910390f35b3480156102d757600080fd5b506102e061071a565b604051808273ffffffffffffffffffffffffffffffffffffffff1673ffffffffffffffffffffffffffffffffffffffff16815260200191505060405180910390f35b34801561032e57600080fd5b50610337610740565b604051808215151515815260200191505060405180910390f35b34801561035d57600080fd5b50610366610753565b604051808273ffffffffffffffffffffffffffffffffffffffff1673ffffffffffffffffffffffffffffffffffffffff16815260200191505060405180910390f35b3480156103b457600080fd5b506103bd610779565b604051808260ff1660ff16815260200191505060405180910390f35b3480156103e557600080fd5b506103ee61078c565b604051808273ffffffffffffffffffffffffffffffffffffffff1673ffffffffffffffffffffffffffffffffffffffff16815260200191505060405180910390f35b34801561043c57600080fd5b506104456107b2565b604051808273ffffffffffffffffffffffffffffffffffffffff1673ffffffffffffffffffffffffffffffffffffffff16815260200191505060405180910390f35b34801561049357600080fd5b5061049c6107d8565b604051808273ffffffffffffffffffffffffffffffffffffffff1673ffffffffffffffffffffffffffffffffffffffff16815260200191505060405180910390f35b3480156104ea57600080fd5b506104f36107fe565b604051808273ffffffffffffffffffffffffffffffffffffffff1673ffffffffffffffffffffffffffffffffffffffff16815260200191505060405180910390f35b34801561054157600080fd5b5061054a610824565b604051808273ffffffffffffffffffffffffffffffffffffffff1673ffffffffffffffffffffffffffffffffffffffff16815260200191505060405180910390f35b34801561059857600080fd5b506105a161084a565b604051808273ffffffffffffffffffffffffffffffffffffffff1673ffffffffffffffffffffffffffffffffffffffff16815260200191505060405180910390f35b3480156105ef57600080fd5b506105f8610870565b604051808273ffffffffffffffffffffffffffffffffffffffff1673ffffffffffffffffffffffffffffffffffffffff16815260200191505060405180910390f35b34801561064657600080fd5b5061064f610896565b604051808215151515815260200191505060405180910390f35b60005481565b600160009054906101000a900473ffffffffffffffffffffffffffffffffffffffff1681565b600160149054906101000a900460ff1681565b600160159054906101000a900460ff1681565b600260009054906101000a900473ffffffffffffffffffffffffffffffffffffffff1681565b600360009054906101000a900473ffffffffffffffffffffffffffffffffffffffff1681565b600360149054906101000a900460ff1681565b600460009054906101000a900473ffffffffffffffffffffffffffffffffffffffff1681565b600460149054906101000a900460ff1681565b600560009054906101000a900473ffffffffffffffffffffffffffffffffffffffff1681565b600560149054906101000a900460ff1681565b600660009054906101000a900473ffffffffffffffffffffffffffffffffffffffff1681565b600760009054906101000a900473ffffffffffffffffffffffffffffffffffffffff1681565b600860009054906101000a900473ffffffffffffffffffffffffffffffffffffffff1681565b600960009054906101000a900473ffffffffffffffffffffffffffffffffffffffff1681565b600a60009054906101000a900473ffffffffffffffffffffffffffffffffffffffff1681565b600b60009054906101000a900473ffffffffffffffffffffffffffffffffffffffff1681565b600c60009054906101000a900473ffffffffffffffffffffffffffffffffffffffff1681565b600c60149054906101000a900460ff16815600a165627a7a72305820a7a9db92bf9a54451d21d709a5ee44873167ebdfb93e5a0431e012087d04d8570029",
  "source": "pragma solidity 0.4.25;\n\n/*\n\n * @package     BlockBitsIO\n * @author      Micky Socaci <micky@nowlive.ro>\n\n    Generic ABI Batch caller that returns a ( 32 byte * input[num] ) length  byte buffer \n\n    Deploy Cost: 961621 gas\n    Call Transaction cost: 56546 gas \n    \n    single transaction call: ~22000 gas\n    example call reduction: 93%\n    http requests: 1 instead of 19\n    \n\n// hex[num:2][method_sha3:4][return_type:1][method_sha3:4][return_type:2]\n// CallData: \n// 0013188ec3560119ee5bca02223fcbc9003072cf600030f7589000385fbe24004073002e0051fc6f590057945e3e006a\n// d49245007278d62300919baade0091fa055500961ffc6800b37edb6600b8109e1a00e8be2e8e00efdee94f00fa9d235200\n\n188ec35601 => 000000000000000000000000000000000000000000000000000000005b8bc24f\n19ee5bca02 => 000000000000000000000000766d1f049ba649f9a89ae417ba555599a6546b5a\n223fcbc900 => 0000000000000000000000000000000000000000000000000000000000000000  // bool false\n3072cf6000 => 0000000000000000000000000000000000000000000000000000000000000001\n30f7589000 => 000000000000000000000000b4e8d821b5b43fca08f5986d9b52a8dc00565cc5\n385fbe2400 => 0000000000000000000000005f03b7561e62efdab8b2fb740d83630d4d2710d7\n4073002e00 => 0000000000000000000000000000000000000000000000000000000000000009\n51fc6f5900 => 000000000000000000000000584af734a101538cad9b9522d1b9c87f1c08f9c4\n57945e3e00 => 0000000000000000000000000000000000000000000000000000000000000000  // bool false\n6ad4924500 => 000000000000000000000000b4007597da3402a1e2b69c8e1c6dd753d01a8035\n7278d62300 => 0000000000000000000000000000000000000000000000000000000000000096\n919baade00 => 0000000000000000000000005b2db92a43aa86fff2d9a3696a7ee264d03fc907\n91fa055500 => 0000000000000000000000003dfa93d0d80c9985c9c78ce3620bd0803767a95c\n961ffc6800 => 0000000000000000000000003dfa93d0d80c9985c9c78ce3620bd0803767a95c\nb37edb6600 => 00000000000000000000000058534c480ef96b6478940f9bbf6748da8f2ec935\nb8109e1a00 => 000000000000000000000000b435c8dd6edd82918606f0b2d73970683806b004\ne8be2e8e00 => 0000000000000000000000007d88463cc6d0ba403d302204236898414db3251a\nefdee94f00 => 0000000000000000000000003a0d088acfbd75fcf182a3b25d470492952dc704\nfa9d235200 => 0000000000000000000000000000000000000000000000000000000000000000  // bool false\n\n*/\n\n\ncontract ApplicationEntity  {\n    \n    uint256 public  getTimestamp = 1535885903;\n    address public  BountyManagerEntity = 0x766d1F049ba649f9A89ae417BA555599a6546b5A;\n    bool public     _locked = false;\n    bool public     _initialized = true;\n    address public  MilestonesEntity = 0xb4e8D821b5b43fca08F5986D9B52A8DC00565CC5;\n    address public  ListingContractEntity = 0x5f03B7561e62eFDAb8B2fB740D83630D4D2710D7;\n    uint8 public    AssetCollectionNum = 9;\n    address public  TokenManagerEntity = 0x584af734A101538cAd9b9522D1B9C87f1c08F9c4;\n    bool public     anyAssetHasChanges = false;\n    address public  FundingManagerEntity = 0xb4007597dA3402a1E2B69c8E1c6DD753D01a8035;\n    uint8 public    CurrentEntityState = 150;\n    address public  ProposalsEntity = 0x5b2Db92a43Aa86FfF2D9A3696a7Ee264D03Fc907;\n    address public  getParentAddress = 0x3dFA93D0d80C9985c9c78cE3620bd0803767a95C;\n    address public  GatewayInterfaceAddress = 0x3dFA93D0d80C9985c9c78cE3620bd0803767a95C;\n    address public  FundingEntity = 0x58534C480ef96b6478940F9bBF6748DA8F2eC935;\n    address public  MeetingsEntity = 0xb435c8Dd6eDd82918606F0B2d73970683806b004;\n    address public  NewsContractEntity = 0x7D88463CC6D0Ba403D302204236898414db3251A;\n    address public  deployerAddress = 0x3a0d088AcfBd75fcf182A3B25D470492952dc704;\n    bool public hasRequiredStateChanges = false;\n\n}\n\ncontract CallBufferTest {\n    \n    ApplicationEntity public AE;\n    \n    constructor () public {\n        AE = new ApplicationEntity();\n    }\n    \n    enum Types {\n        NONE,\n        UINT,\n        ADDRESS,\n        BYTES,\n        BOOL\n    }\n    \n    function testCombine() public view returns (bytes memory) {\n\n        // hex[num:2][method_sha3:4][return_type:1][method_sha3:4][return_type:2]\n        // bytes memory callData = hex'000b188ec3560119ee5bca02223fcbc9003072cf600030f7589000385fbe24004073002e0051fc6f590057945e3e006ad49245007278d62300919baade0091fa055500961ffc6800b37edb6600b8109e1a00e8be2e8e00efdee94f00fa9d235200';\n        bytes memory callData = hex'0013188ec3560119ee5bca02223fcbc9003072cf600030f7589000385fbe24004073002e0051fc6f590057945e3e006ad49245007278d62300919baade0091fa055500961ffc6800b37edb6600b8109e1a00e8be2e8e00efdee94f00fa9d235200';\n        return combineCalls( address(AE), callData );\n    }\n\n    // function combine(address toAddr, bytes calldata inputData) external view returns (bytes memory, bytes memory, address) {\n    function combineCalls(address toAddr, bytes memory inputData) public view returns (bytes memory) {\n\n        uint16 size = 0;\n        bytes memory OutputBuffer = new bytes(1);\n\n        assembly {\n            // store size from input into local var\n            mstore8( add( size, 30 ), byte( 0, mload( add( inputData, 32) ) ) )\n            mstore8( add( size, 31 ), byte( 1, mload( add( inputData, 32) ) ) )\n\n            // compute expected data length\n            size := mul( mload(size), 32)\n\n             // store methods length into OutputBuffer\n            mstore( OutputBuffer, size )\n            \n            // allocate free space for OutputBuffer starting in data address space\n            for { let n := 0 } lt(n, div(size, 32) ) { n := add(n, 1) } {\n                mstore( add ( add (OutputBuffer, 32), mul( n, 32) ) , 0 )\n            }\n\n            // move free memory pointer \n            mstore(0x40, msize()) \n            \n            {\n                // Find empty storage location using \"free memory pointer\"\n                let callMem := mload(0x40)      \n                mstore(callMem, 0x00)\n                // move free mem pointer by 32\n                mstore(0x40, add(callMem, 32) )\n                \n                // external calls loop\n                for { let n := 0 } lt(n, div(size, 32) ) { n := add(n, 1) } {\n                    \n                    {\n    \n                        // prepare methodSig\n                        let sigDataPointer := add( inputData, add( 33, add( mul( n, 5 ), 1 ) ) )\n    \n                        // 4 bytes right zero padded \n                        mstore8( add(callMem, 0), byte( 0, mload( add( sigDataPointer, 0) ) ) )\n                        mstore8( add(callMem, 1), byte( 0, mload( add( sigDataPointer, 1) ) ) )\n                        mstore8( add(callMem, 2), byte( 0, mload( add( sigDataPointer, 2) ) ) )\n                        mstore8( add(callMem, 3), byte( 0, mload( add( sigDataPointer, 3) ) ) )\n                        \n                        let success := staticcall(      \n                                            500000,     \n                                            toAddr,     // To addr\n                                            callMem,    // Inputs are stored at location callMem\n                                            4,          // Inputs are 4 bytes long\n                                            0,          \n                                            0)          \n            \n                        let thisStorage := add( add(OutputBuffer, 32), mul( n, 32 ) ) \n    \n                        // copy result byte size from return value ( ignore first 32 bytes ) ( next 32 bytes )\n                        returndatacopy( thisStorage, 0, 32)\n\n                    }\n                }\n            }\n        }\n\n        return OutputBuffer;\n    }\n}",
  "sourcePath": "/Volumes/Dev/blockbits/zoomdev/contracts/Zoom.sol",
  "compiler": {
    "name": "solc",
    "version": "0.4.25+commit.59dbf8f1.Emscripten.clang"
  },
  "schemaVersion": "3.0.0-beta.1",
  "updatedAt": "2018-10-24T04:27:35.675Z"
}