{
  "contractName": "ItemEntity",
  "abi": [
    {
      "inputs": [
        {
          "name": "_name",
          "type": "string"
        },
        {
          "name": "_addr",
          "type": "address"
        }
      ],
      "payable": false,
      "stateMutability": "nonpayable",
      "type": "constructor"
    },
    {
      "constant": true,
      "inputs": [],
      "name": "getName",
      "outputs": [
        {
          "name": "",
          "type": "string"
        }
      ],
      "payable": false,
      "stateMutability": "view",
      "type": "function"
    },
    {
      "constant": true,
      "inputs": [],
      "name": "getAsset",
      "outputs": [
        {
          "name": "",
          "type": "address"
        }
      ],
      "payable": false,
      "stateMutability": "view",
      "type": "function"
    },
    {
      "constant": true,
      "inputs": [],
      "name": "getUint8",
      "outputs": [
        {
          "name": "",
          "type": "uint8"
        }
      ],
      "payable": false,
      "stateMutability": "pure",
      "type": "function"
    },
    {
      "constant": true,
      "inputs": [],
      "name": "getUint16",
      "outputs": [
        {
          "name": "",
          "type": "uint16"
        }
      ],
      "payable": false,
      "stateMutability": "pure",
      "type": "function"
    },
    {
      "constant": true,
      "inputs": [],
      "name": "getUint32",
      "outputs": [
        {
          "name": "",
          "type": "uint32"
        }
      ],
      "payable": false,
      "stateMutability": "pure",
      "type": "function"
    },
    {
      "constant": true,
      "inputs": [],
      "name": "getUint64",
      "outputs": [
        {
          "name": "",
          "type": "uint64"
        }
      ],
      "payable": false,
      "stateMutability": "pure",
      "type": "function"
    },
    {
      "constant": true,
      "inputs": [],
      "name": "getUint128",
      "outputs": [
        {
          "name": "",
          "type": "uint128"
        }
      ],
      "payable": false,
      "stateMutability": "pure",
      "type": "function"
    },
    {
      "constant": true,
      "inputs": [],
      "name": "getUint256",
      "outputs": [
        {
          "name": "",
          "type": "uint256"
        }
      ],
      "payable": false,
      "stateMutability": "pure",
      "type": "function"
    },
    {
      "constant": true,
      "inputs": [],
      "name": "getString8",
      "outputs": [
        {
          "name": "",
          "type": "string"
        }
      ],
      "payable": false,
      "stateMutability": "pure",
      "type": "function"
    },
    {
      "constant": true,
      "inputs": [],
      "name": "getString16",
      "outputs": [
        {
          "name": "",
          "type": "string"
        }
      ],
      "payable": false,
      "stateMutability": "pure",
      "type": "function"
    },
    {
      "constant": true,
      "inputs": [],
      "name": "getString32",
      "outputs": [
        {
          "name": "",
          "type": "string"
        }
      ],
      "payable": false,
      "stateMutability": "pure",
      "type": "function"
    },
    {
      "constant": true,
      "inputs": [],
      "name": "getString64",
      "outputs": [
        {
          "name": "",
          "type": "string"
        }
      ],
      "payable": false,
      "stateMutability": "pure",
      "type": "function"
    },
    {
      "constant": true,
      "inputs": [],
      "name": "getAddress",
      "outputs": [
        {
          "name": "",
          "type": "address"
        }
      ],
      "payable": false,
      "stateMutability": "pure",
      "type": "function"
    },
    {
      "constant": true,
      "inputs": [],
      "name": "getBoolTrue",
      "outputs": [
        {
          "name": "",
          "type": "bool"
        }
      ],
      "payable": false,
      "stateMutability": "pure",
      "type": "function"
    },
    {
      "constant": true,
      "inputs": [],
      "name": "getBoolFalse",
      "outputs": [
        {
          "name": "",
          "type": "bool"
        }
      ],
      "payable": false,
      "stateMutability": "pure",
      "type": "function"
    },
    {
      "constant": true,
      "inputs": [],
      "name": "getBytes8",
      "outputs": [
        {
          "name": "",
          "type": "bytes8"
        }
      ],
      "payable": false,
      "stateMutability": "pure",
      "type": "function"
    },
    {
      "constant": true,
      "inputs": [],
      "name": "getBytes16",
      "outputs": [
        {
          "name": "",
          "type": "bytes16"
        }
      ],
      "payable": false,
      "stateMutability": "pure",
      "type": "function"
    },
    {
      "constant": true,
      "inputs": [],
      "name": "getBytes32",
      "outputs": [
        {
          "name": "",
          "type": "bytes32"
        }
      ],
      "payable": false,
      "stateMutability": "pure",
      "type": "function"
    },
    {
      "constant": true,
      "inputs": [],
      "name": "getBytes",
      "outputs": [
        {
          "name": "",
          "type": "bytes"
        }
      ],
      "payable": false,
      "stateMutability": "pure",
      "type": "function"
    },
    {
      "constant": true,
      "inputs": [
        {
          "name": "numVar",
          "type": "uint8"
        },
        {
          "name": "boolVar",
          "type": "bool"
        },
        {
          "name": "stringVar",
          "type": "string"
        },
        {
          "name": "bytesVar",
          "type": "bytes8"
        }
      ],
      "name": "multipleOne",
      "outputs": [
        {
          "name": "",
          "type": "string"
        }
      ],
      "payable": false,
      "stateMutability": "pure",
      "type": "function"
    },
    {
      "constant": true,
      "inputs": [
        {
          "name": "one",
          "type": "string"
        },
        {
          "name": "two",
          "type": "string"
        },
        {
          "name": "three",
          "type": "string"
        }
      ],
      "name": "multipleTwo",
      "outputs": [
        {
          "name": "",
          "type": "string"
        }
      ],
      "payable": false,
      "stateMutability": "pure",
      "type": "function"
    }
  ],
  "bytecode": "0x608060405234801561001057600080fd5b50604051610f80380380610f808339810180604052810190808051820192919060200180519060200190929190505050816000908051906020019061005692919061009f565b5080600160006101000a81548173ffffffffffffffffffffffffffffffffffffffff021916908373ffffffffffffffffffffffffffffffffffffffff1602179055505050610144565b828054600181600116156101000203166002900490600052602060002090601f016020900481019282601f106100e057805160ff191683800117855561010e565b8280016001018555821561010e579182015b8281111561010d5782518255916020019190600101906100f2565b5b50905061011b919061011f565b5090565b61014191905b8082111561013d576000816000905550600101610125565b5090565b90565b610e2d806101536000396000f30060806040526004361061011d576000357c0100000000000000000000000000000000000000000000000000000000900463ffffffff1680630bcd3b331461012257806317d7de7c146101b25780631cf61bdc146102425780631f903037146102d257806327285d5d14610305578063343a875d1461047357806338cc4831146104a4578063434a98d8146104fb578063446fd9f01461061b57806344d423d51461066a578063475a7bf11461069957806354e176321461072957806356e1b15c146107605780635c222bad1461079f5780635f0c9a6b146107f6578063688959791461088657806379913699146108b1578063c3334ff814610902578063c7c655de14610935578063d0369b3f146109c5578063db14c800146109f4575b600080fd5b34801561012e57600080fd5b50610137610a55565b6040518080602001828103825283818151815260200191508051906020019080838360005b8381101561017757808201518184015260208101905061015c565b50505050905090810190601f1680156101a45780820380516001836020036101000a031916815260200191505b509250505060405180910390f35b3480156101be57600080fd5b506101c7610ac6565b6040518080602001828103825283818151815260200191508051906020019080838360005b838110156102075780820151818401526020810190506101ec565b50505050905090810190601f1680156102345780820380516001836020036101000a031916815260200191505b509250505060405180910390f35b34801561024e57600080fd5b50610257610b68565b6040518080602001828103825283818151815260200191508051906020019080838360005b8381101561029757808201518184015260208101905061027c565b50505050905090810190601f1680156102c45780820380516001836020036101000a031916815260200191505b509250505060405180910390f35b3480156102de57600080fd5b506102e7610bcb565b60405180826000191660001916815260200191505060405180910390f35b34801561031157600080fd5b506103f8600480360381019080803590602001908201803590602001908080601f0160208091040260200160405190810160405280939291908181526020018383808284378201915050505050509192919290803590602001908201803590602001908080601f0160208091040260200160405190810160405280939291908181526020018383808284378201915050505050509192919290803590602001908201803590602001908080601f0160208091040260200160405190810160405280939291908181526020018383808284378201915050505050509192919290505050610bf6565b6040518080602001828103825283818151815260200191508051906020019080838360005b8381101561043857808201518184015260208101905061041d565b50505050905090810190601f1680156104655780820380516001836020036101000a031916815260200191505b509250505060405180910390f35b34801561047f57600080fd5b50610488610c28565b604051808260ff1660ff16815260200191505060405180910390f35b3480156104b057600080fd5b506104b9610c31565b604051808273ffffffffffffffffffffffffffffffffffffffff1673ffffffffffffffffffffffffffffffffffffffff16815260200191505060405180910390f35b34801561050757600080fd5b506105a0600480360381019080803560ff169060200190929190803515159060200190929190803590602001908201803590602001908080601f0160208091040260200160405190810160405280939291908181526020018383808284378201915050505050509192919290803577ffffffffffffffffffffffffffffffffffffffffffffffff19169060200190929190505050610c3a565b6040518080602001828103825283818151815260200191508051906020019080838360005b838110156105e05780820151818401526020810190506105c5565b50505050905090810190601f16801561060d5780820380516001836020036101000a031916815260200191505b509250505060405180910390f35b34801561062757600080fd5b50610630610c53565b60405180826fffffffffffffffffffffffffffffffff166fffffffffffffffffffffffffffffffff16815260200191505060405180910390f35b34801561067657600080fd5b5061067f610c6b565b604051808215151515815260200191505060405180910390f35b3480156106a557600080fd5b506106ae610c74565b6040518080602001828103825283818151815260200191508051906020019080838360005b838110156106ee5780820151818401526020810190506106d3565b50505050905090810190601f16801561071b5780820380516001836020036101000a031916815260200191505b509250505060405180910390f35b34801561073557600080fd5b5061073e610cb1565b604051808263ffffffff1663ffffffff16815260200191505060405180910390f35b34801561076c57600080fd5b50610775610cbd565b604051808267ffffffffffffffff1667ffffffffffffffff16815260200191505060405180910390f35b3480156107ab57600080fd5b506107b4610ccd565b604051808273ffffffffffffffffffffffffffffffffffffffff1673ffffffffffffffffffffffffffffffffffffffff16815260200191505060405180910390f35b34801561080257600080fd5b5061080b610cf7565b6040518080602001828103825283818151815260200191508051906020019080838360005b8381101561084b578082015181840152602081019050610830565b50505050905090810190601f1680156108785780820380516001836020036101000a031916815260200191505b509250505060405180910390f35b34801561089257600080fd5b5061089b610d34565b6040518082815260200191505060405180910390f35b3480156108bd57600080fd5b506108c6610d5c565b60405180826fffffffffffffffffffffffffffffffff19166fffffffffffffffffffffffffffffffff1916815260200191505060405180910390f35b34801561090e57600080fd5b50610917610d87565b604051808261ffff1661ffff16815260200191505060405180910390f35b34801561094157600080fd5b5061094a610d91565b6040518080602001828103825283818151815260200191508051906020019080838360005b8381101561098a57808201518184015260208101905061096f565b50505050905090810190601f1680156109b75780820380516001836020036101000a031916815260200191505b509250505060405180910390f35b3480156109d157600080fd5b506109da610dce565b604051808215151515815260200191505060405180910390f35b348015610a0057600080fd5b50610a09610dd6565b604051808277ffffffffffffffffffffffffffffffffffffffffffffffff191677ffffffffffffffffffffffffffffffffffffffffffffffff1916815260200191505060405180910390f35b60608060016040519080825280601f01601f191660200182016040528015610a8c5781602001602082028038833980820191505090505b509050604080825260005b60208204811015610ab957600b60208202602085010152600181019050610a97565b5059604052508091505090565b606060008054600181600116156101000203166002900480601f016020809104026020016040519081016040528092919081815260200182805460018160011615610100020316600290048015610b5e5780601f10610b3357610100808354040283529160200191610b5e565b820191906000526020600020905b815481529060010190602001808311610b4157829003601f168201915b5050505050905090565b60608060405190810160405280604081526020017f313233343536373831323334353637383132333435363738313233343536373881526020017f3132333435363738313233343536373831323334353637383132333435363738815250905090565b60007f0102030405060708090a0b0c0d0e0f101112131415161718191a1b1c1d1e1f20600102905090565b606060206040519081016040528060008152509250602060405190810160405280600081525091508390509392505050565b600060ff905090565b60006001905090565b6060600094506000935060009150829050949350505050565b60006fffffffffffffffffffffffffffffffff905090565b60006001905090565b60606040805190810160405280600881526020017f3132333435363738000000000000000000000000000000000000000000000000815250905090565b600063ffffffff905090565b600067ffffffffffffffff905090565b6000600160009054906101000a900473ffffffffffffffffffffffffffffffffffffffff16905090565b60606040805190810160405280602081526020017f3132333435363738313233343536373831323334353637383132333435363738815250905090565b60007fffffffffffffffffffffffffffffffffffffffffffffffffffffffffffffffff905090565b60006f0102030405060708010203040506070870010000000000000000000000000000000002905090565b600061ffff905090565b60606040805190810160405280601081526020017f3132333435363738313233343536373800000000000000000000000000000000815250905090565b600080905090565b60006701020304050607087801000000000000000000000000000000000000000000000000029050905600a165627a7a72305820b54754af91b9f14ecc505fa51eee889fd09303c549ead3e2ccdd3c1a6dbfc70d0029",
  "source": "/*\n\n * source       https://github.com/mickys/zoomdev/\n\n * @name        Item Contract\n * @package     ZoomDev\n * @author      Micky Socaci <micky@nowlive.ro>\n\n*/\n\npragma solidity 0.4.25;\n\n\ncontract ItemEntity {\n\n    string private name;\n    address private asset;\n\n    constructor(string _name, address _addr) public {\n        name = _name;\n        asset = _addr;\n    }\n\n    function getName() public view returns (string) {\n        return name;\n    }\n\n    function getAsset() public view returns (address) {\n        return asset;\n    }\n\n    function getUint8() public pure returns (uint8) {\n        return 2**8-1;\n    }\n\n    function getUint16() public pure returns (uint16) {\n        return 2**16-1;\n    }\n\n    function getUint32() public pure returns (uint32) {\n        return 2**32-1;\n    }\n    \n    function getUint64() public pure returns (uint64) {\n        return 2**64-1;\n    }\n    \n    function getUint128() public pure returns (uint128) {\n        return 2**128-1;\n    }\n\n    function getUint256() public pure returns (uint256) {\n        return 2**256-1;\n    }\n\n    function getString8() public pure returns (string) {\n        return \"12345678\";\n    }\n\n    function getString16() public pure returns (string) {\n        return \"1234567812345678\";\n    }\n\n    function getString32() public pure returns (string) {\n        return \"12345678123456781234567812345678\";\n    }\n\n    function getString64() public pure returns (string) {\n        return \"1234567812345678123456781234567812345678123456781234567812345678\";\n    }\n\n    function getAddress() public pure returns (address) {\n        return 0x0000000000000000000000000000000000000001;\n    }\n\n    function getBoolTrue() public pure returns (bool) {\n        return true;\n    }\n\n    function getBoolFalse() public pure returns (bool) {\n        return false;\n    }\n\n    function getBytes8() public pure returns (bytes8) {\n        return 0x0102030405060708;\n    }\n\n    function getBytes16() public pure returns (bytes16) {\n        return 0x01020304050607080102030405060708;\n    }\n\n    function getBytes32() public pure returns (bytes32) {\n        return 0x0102030405060708090a0b0c0d0e0f101112131415161718191a1b1c1d1e1f20;\n    }\n\n    function getBytes() public pure returns (bytes memory) {\n        bytes memory outputBuffer = new bytes(1);\n        assembly {\n\n            let size := 64\n            mstore( outputBuffer, size )\n            \n            for { let n := 0 } lt(n, div(size, 32) ) { n := add(n, 1) } {\n                mstore( add ( add (outputBuffer, 32), mul( n, 32) ), 11 )\n            }\n\n            // move free memory pointer \n            mstore(0x40, msize()) \n\n        }\n        return outputBuffer;\n    }\n\n    function multipleOne( uint8 numVar, bool boolVar, string stringVar, bytes8 bytesVar ) public pure returns ( string ) {\n        numVar = 0;\n        boolVar = false;\n        bytesVar = \"\";\n        return stringVar;\n    }\n\n    function multipleTwo( string one, string two, string three ) public pure returns ( string ) {\n        two = \"\";\n        three = \"\";\n        return one;\n    }\n}",
  "sourcePath": "/Volumes/Dev/blockbits/zoomdev/contracts/ItemEntity.sol",
  "compiler": {
    "name": "solc",
    "version": "0.4.25+commit.59dbf8f1.Emscripten.clang"
  },
  "schemaVersion": "3.0.0-beta.1",
  "updatedAt": "2018-11-12T01:37:01.070Z"
}