{
  "contractName": "ListingContract",
  "abi": [
    {
      "constant": true,
      "inputs": [
        {
          "name": "",
          "type": "uint256"
        }
      ],
      "name": "items",
      "outputs": [
        {
          "name": "name",
          "type": "string"
        },
        {
          "name": "itemAddress",
          "type": "address"
        },
        {
          "name": "status",
          "type": "bool"
        },
        {
          "name": "index",
          "type": "uint256"
        }
      ],
      "payable": false,
      "stateMutability": "view",
      "type": "function"
    },
    {
      "constant": true,
      "inputs": [],
      "name": "managerAddress",
      "outputs": [
        {
          "name": "",
          "type": "address"
        }
      ],
      "payable": false,
      "stateMutability": "view",
      "type": "function"
    },
    {
      "constant": true,
      "inputs": [],
      "name": "itemNum",
      "outputs": [
        {
          "name": "",
          "type": "uint256"
        }
      ],
      "payable": false,
      "stateMutability": "view",
      "type": "function"
    },
    {
      "inputs": [],
      "payable": false,
      "stateMutability": "nonpayable",
      "type": "constructor"
    },
    {
      "anonymous": false,
      "inputs": [
        {
          "indexed": false,
          "name": "_name",
          "type": "string"
        },
        {
          "indexed": false,
          "name": "_address",
          "type": "address"
        },
        {
          "indexed": false,
          "name": "_index",
          "type": "uint256"
        }
      ],
      "name": "EventNewChildItem",
      "type": "event"
    },
    {
      "constant": false,
      "inputs": [],
      "name": "addDummyRecord",
      "outputs": [],
      "payable": false,
      "stateMutability": "nonpayable",
      "type": "function"
    },
    {
      "constant": false,
      "inputs": [
        {
          "name": "_name",
          "type": "string"
        },
        {
          "name": "_address",
          "type": "address"
        }
      ],
      "name": "addItem",
      "outputs": [],
      "payable": false,
      "stateMutability": "nonpayable",
      "type": "function"
    },
    {
      "constant": true,
      "inputs": [
        {
          "name": "_childId",
          "type": "uint256"
        }
      ],
      "name": "getChildStatus",
      "outputs": [
        {
          "name": "",
          "type": "bool"
        }
      ],
      "payable": false,
      "stateMutability": "view",
      "type": "function"
    },
    {
      "constant": false,
      "inputs": [
        {
          "name": "_childId",
          "type": "uint256"
        }
      ],
      "name": "delistChild",
      "outputs": [],
      "payable": false,
      "stateMutability": "nonpayable",
      "type": "function"
    }
  ],
  "bytecode": "0x6080604052600060025534801561001557600080fd5b50336000806101000a81548173ffffffffffffffffffffffffffffffffffffffff021916908373ffffffffffffffffffffffffffffffffffffffff160217905550611cd6806100656000396000f300608060405260043610610083576000357c0100000000000000000000000000000000000000000000000000000000900463ffffffff16806309958e4c146100885780634b600062146100cd5780635386c695146100e457806392e75d511461016d578063bfb231d21461019a578063cf73a1bc14610285578063eaf2a5ef146102dc575b600080fd5b34801561009457600080fd5b506100b360048036038101908080359060200190929190505050610307565b604051808215151515815260200191505060405180910390f35b3480156100d957600080fd5b506100e261045c565b005b3480156100f057600080fd5b5061016b600480360381019080803590602001908201803590602001908080601f0160208091040260200160405190810160405280939291908181526020018383808284378201915050505050509192919290803573ffffffffffffffffffffffffffffffffffffffff1690602001909291905050506106a4565b005b34801561017957600080fd5b50610198600480360381019080803590602001909291905050506108f0565b005b3480156101a657600080fd5b506101c560048036038101908080359060200190929190505050610a1f565b60405180806020018573ffffffffffffffffffffffffffffffffffffffff1673ffffffffffffffffffffffffffffffffffffffff16815260200184151515158152602001838152602001828103825286818151815260200191508051906020019080838360005b8381101561024757808201518184015260208101905061022c565b50505050905090810190601f1680156102745780820380516001836020036101000a031916815260200191505b509550505050505060405180910390f35b34801561029157600080fd5b5061029a610b14565b604051808273ffffffffffffffffffffffffffffffffffffffff1673ffffffffffffffffffffffffffffffffffffffff16815260200191505060405180910390f35b3480156102e857600080fd5b506102f1610b39565b6040518082815260200191505060405180910390f35b6000610311610f23565b6001600084815260200190815260200160002060806040519081016040529081600082018054600181600116156101000203166002900480601f0160208091040260200160405190810160405280929190818152602001828054600181600116156101000203166002900480156103c95780601f1061039e576101008083540402835291602001916103c9565b820191906000526020600020905b8154815290600101906020018083116103ac57829003601f168201915b505050505081526020016001820160009054906101000a900473ffffffffffffffffffffffffffffffffffffffff1673ffffffffffffffffffffffffffffffffffffffff1673ffffffffffffffffffffffffffffffffffffffff1681526020016001820160149054906101000a900460ff1615151515815260200160028201548152505090508060400151915050919050565b600080600080600060019450600160025401935084840192508391505b8282101561069d576104c06040805190810160405280600a81526020017f4974656d204e616d65200000000000000000000000000000000000000000000081525083610b3f565b6104c983610de0565b6104d1610f64565b80806020018373ffffffffffffffffffffffffffffffffffffffff1673ffffffffffffffffffffffffffffffffffffffff168152602001828103825284818151815260200191508051906020019080838360005b83811015610540578082015181840152602081019050610525565b50505050905090810190601f16801561056d5780820380516001836020036101000a031916815260200191505b509350505050604051809103906000f08015801561058f573d6000803e3d6000fd5b5090506106908173ffffffffffffffffffffffffffffffffffffffff166317d7de7c6040518163ffffffff167c0100000000000000000000000000000000000000000000000000000000028152600401600060405180830381600087803b1580156105f957600080fd5b505af115801561060d573d6000803e3d6000fd5b505050506040513d6000823e3d601f19601f82011682018060405250602081101561063757600080fd5b81019080805164010000000081111561064f57600080fd5b8281019050602081018481111561066557600080fd5b815185600182028301116401000000008211171561068257600080fd5b5050929190505050826106a4565b8180600101925050610479565b5050505050565b60008060009054906101000a900473ffffffffffffffffffffffffffffffffffffffff1673ffffffffffffffffffffffffffffffffffffffff163373ffffffffffffffffffffffffffffffffffffffff1614151561076a576040517f08c379a000000000000000000000000000000000000000000000000000000000815260040180806020018281038252601e8152602001807f53656e646572206d757374206265206d616e616765722061646472657373000081525060200191505060405180910390fd5b6001600060026000815460010191905081905581526020019081526020016000209050828160000190805190602001906107a5929190610f74565b50818160010160006101000a81548173ffffffffffffffffffffffffffffffffffffffff021916908373ffffffffffffffffffffffffffffffffffffffff16021790555060018160010160146101000a81548160ff02191690831515021790555060025481600201819055507f23edf714647c793a4cd466e26b25f4c3aad8f5923d416204fa0707b3af7bcd5c838360025460405180806020018473ffffffffffffffffffffffffffffffffffffffff1673ffffffffffffffffffffffffffffffffffffffff168152602001838152602001828103825285818151815260200191508051906020019080838360005b838110156108af578082015181840152602081019050610894565b50505050905090810190601f1680156108dc5780820380516001836020036101000a031916815260200191505b5094505050505060405180910390a1505050565b6000600115156001600084815260200190815260200160002060010160149054906101000a900460ff16151514801561097557506000809054906101000a900473ffffffffffffffffffffffffffffffffffffffff1673ffffffffffffffffffffffffffffffffffffffff163373ffffffffffffffffffffffffffffffffffffffff16145b15156109e9576040517f08c379a000000000000000000000000000000000000000000000000000000000815260040180806020018281038252601e8152602001807f4974656d206e6565647320746f2068617665207374617475732074727565000081525060200191505060405180910390fd5b60016000838152602001908152602001600020905060008160010160146101000a81548160ff0219169083151502179055505050565b6001602052806000526040600020600091509050806000018054600181600116156101000203166002900480601f016020809104026020016040519081016040528092919081815260200182805460018160011615610100020316600290048015610acb5780601f10610aa057610100808354040283529160200191610acb565b820191906000526020600020905b815481529060010190602001808311610aae57829003601f168201915b5050505050908060010160009054906101000a900473ffffffffffffffffffffffffffffffffffffffff16908060010160149054906101000a900460ff16908060020154905084565b6000809054906101000a900473ffffffffffffffffffffffffffffffffffffffff1681565b60025481565b6060600060606000806000606080600060649750876040519080825280601f01601f191660200182016040528015610b865781602001602082028038833980820191505090505b509650600095508994505b600085141515610c2857600a85811515610ba757fe5b069350600a85811515610bb657fe5b049450836030017f0100000000000000000000000000000000000000000000000000000000000000028787806001019850815181101515610bf357fe5b9060200101907effffffffffffffffffffffffffffffffffffffffffffffffffffffffffffff1916908160001a905350610b91565b8a9250858351016040519080825280601f01601f191660200182016040528015610c615781602001602082028038833980820191505090505b509150600090505b8251811015610d16578281815181101515610c8057fe5b9060200101517f010000000000000000000000000000000000000000000000000000000000000090047f0100000000000000000000000000000000000000000000000000000000000000028282815181101515610cd957fe5b9060200101907effffffffffffffffffffffffffffffffffffffffffffffffffffffffffffff1916908160001a9053508080600101915050610c69565b600090505b85811015610dcf5786816001880303815181101515610d3657fe5b9060200101517f010000000000000000000000000000000000000000000000000000000000000090047f0100000000000000000000000000000000000000000000000000000000000000028284518301815181101515610d9257fe5b9060200101907effffffffffffffffffffffffffffffffffffffffffffffffffffffffffffff1916908160001a9053508080600101915050610d1b565b819850505050505050505092915050565b6000606060146040519080825280601f01601f191660200182016040528015610e185781602001602082028038833980820191505090505b50905060005b6013811015610e3b57600081602084010153600181019050610e1e565b50826013602083010153610e4e81610e56565b915050919050565b6000806000806000809350600186510392505b6000600184011115610f17578583815181101515610e8357fe5b9060200101517f010000000000000000000000000000000000000000000000000000000000000090047f0100000000000000000000000000000000000000000000000000000000000000027f0100000000000000000000000000000000000000000000000000000000000000900491506002600184885103030260100a820290508084019350828060019003935050610e69565b83945050505050919050565b60806040519081016040528060608152602001600073ffffffffffffffffffffffffffffffffffffffff168152602001600015158152602001600081525090565b604051610c918061101a83390190565b828054600181600116156101000203166002900490600052602060002090601f016020900481019282601f10610fb557805160ff1916838001178555610fe3565b82800160010185558215610fe3579182015b82811115610fe2578251825591602001919060010190610fc7565b5b509050610ff09190610ff4565b5090565b61101691905b80821115611012576000816000905550600101610ffa565b5090565b905600608060405234801561001057600080fd5b50604051610c91380380610c918339810180604052810190808051820192919060200180519060200190929190505050816000908051906020019061005692919061009f565b5080600160006101000a81548173ffffffffffffffffffffffffffffffffffffffff021916908373ffffffffffffffffffffffffffffffffffffffff1602179055505050610144565b828054600181600116156101000203166002900490600052602060002090601f016020900481019282601f106100e057805160ff191683800117855561010e565b8280016001018555821561010e579182015b8281111561010d5782518255916020019190600101906100f2565b5b50905061011b919061011f565b5090565b61014191905b8082111561013d576000816000905550600101610125565b5090565b90565b610b3e806101536000396000f300608060405260043610610107576000357c0100000000000000000000000000000000000000000000000000000000900463ffffffff1680630bcd3b331461010c57806317d7de7c1461019c5780631cf61bdc1461022c5780631f903037146102bc578063343a875d146102ef57806338cc483114610320578063446fd9f01461037757806344d423d5146103c6578063475a7bf1146103f557806354e176321461048557806356e1b15c146104bc5780635c222bad146104fb5780635f0c9a6b1461055257806368895979146105e2578063799136991461060d578063c3334ff81461065e578063c7c655de14610691578063d0369b3f14610721578063db14c80014610750575b600080fd5b34801561011857600080fd5b506101216107b1565b6040518080602001828103825283818151815260200191508051906020019080838360005b83811015610161578082015181840152602081019050610146565b50505050905090810190601f16801561018e5780820380516001836020036101000a031916815260200191505b509250505060405180910390f35b3480156101a857600080fd5b506101b1610822565b6040518080602001828103825283818151815260200191508051906020019080838360005b838110156101f15780820151818401526020810190506101d6565b50505050905090810190601f16801561021e5780820380516001836020036101000a031916815260200191505b509250505060405180910390f35b34801561023857600080fd5b506102416108c4565b6040518080602001828103825283818151815260200191508051906020019080838360005b83811015610281578082015181840152602081019050610266565b50505050905090810190601f1680156102ae5780820380516001836020036101000a031916815260200191505b509250505060405180910390f35b3480156102c857600080fd5b506102d1610927565b60405180826000191660001916815260200191505060405180910390f35b3480156102fb57600080fd5b50610304610952565b604051808260ff1660ff16815260200191505060405180910390f35b34801561032c57600080fd5b5061033561095b565b604051808273ffffffffffffffffffffffffffffffffffffffff1673ffffffffffffffffffffffffffffffffffffffff16815260200191505060405180910390f35b34801561038357600080fd5b5061038c610964565b60405180826fffffffffffffffffffffffffffffffff166fffffffffffffffffffffffffffffffff16815260200191505060405180910390f35b3480156103d257600080fd5b506103db61097c565b604051808215151515815260200191505060405180910390f35b34801561040157600080fd5b5061040a610985565b6040518080602001828103825283818151815260200191508051906020019080838360005b8381101561044a57808201518184015260208101905061042f565b50505050905090810190601f1680156104775780820380516001836020036101000a031916815260200191505b509250505060405180910390f35b34801561049157600080fd5b5061049a6109c2565b604051808263ffffffff1663ffffffff16815260200191505060405180910390f35b3480156104c857600080fd5b506104d16109ce565b604051808267ffffffffffffffff1667ffffffffffffffff16815260200191505060405180910390f35b34801561050757600080fd5b506105106109de565b604051808273ffffffffffffffffffffffffffffffffffffffff1673ffffffffffffffffffffffffffffffffffffffff16815260200191505060405180910390f35b34801561055e57600080fd5b50610567610a08565b6040518080602001828103825283818151815260200191508051906020019080838360005b838110156105a757808201518184015260208101905061058c565b50505050905090810190601f1680156105d45780820380516001836020036101000a031916815260200191505b509250505060405180910390f35b3480156105ee57600080fd5b506105f7610a45565b6040518082815260200191505060405180910390f35b34801561061957600080fd5b50610622610a6d565b60405180826fffffffffffffffffffffffffffffffff19166fffffffffffffffffffffffffffffffff1916815260200191505060405180910390f35b34801561066a57600080fd5b50610673610a98565b604051808261ffff1661ffff16815260200191505060405180910390f35b34801561069d57600080fd5b506106a6610aa2565b6040518080602001828103825283818151815260200191508051906020019080838360005b838110156106e65780820151818401526020810190506106cb565b50505050905090810190601f1680156107135780820380516001836020036101000a031916815260200191505b509250505060405180910390f35b34801561072d57600080fd5b50610736610adf565b604051808215151515815260200191505060405180910390f35b34801561075c57600080fd5b50610765610ae7565b604051808277ffffffffffffffffffffffffffffffffffffffffffffffff191677ffffffffffffffffffffffffffffffffffffffffffffffff1916815260200191505060405180910390f35b60608060016040519080825280601f01601f1916602001820160405280156107e85781602001602082028038833980820191505090505b509050604080825260005b6020820481101561081557600b602082026020850101526001810190506107f3565b5059604052508091505090565b606060008054600181600116156101000203166002900480601f0160208091040260200160405190810160405280929190818152602001828054600181600116156101000203166002900480156108ba5780601f1061088f576101008083540402835291602001916108ba565b820191906000526020600020905b81548152906001019060200180831161089d57829003601f168201915b5050505050905090565b60608060405190810160405280604081526020017f313233343536373831323334353637383132333435363738313233343536373881526020017f3132333435363738313233343536373831323334353637383132333435363738815250905090565b60007f0102030405060708090a0b0c0d0e0f101112131415161718191a1b1c1d1e1f20600102905090565b600060ff905090565b60006001905090565b60006fffffffffffffffffffffffffffffffff905090565b60006001905090565b60606040805190810160405280600881526020017f3132333435363738000000000000000000000000000000000000000000000000815250905090565b600063ffffffff905090565b600067ffffffffffffffff905090565b6000600160009054906101000a900473ffffffffffffffffffffffffffffffffffffffff16905090565b60606040805190810160405280602081526020017f3132333435363738313233343536373831323334353637383132333435363738815250905090565b60007fffffffffffffffffffffffffffffffffffffffffffffffffffffffffffffffff905090565b60006f0102030405060708010203040506070870010000000000000000000000000000000002905090565b600061ffff905090565b60606040805190810160405280601081526020017f3132333435363738313233343536373800000000000000000000000000000000815250905090565b600080905090565b60006701020304050607087801000000000000000000000000000000000000000000000000029050905600a165627a7a723058209ce7a285407a9f6d0a80cd6b3e7a1644c27de6c5be8049ee9b066ac034b2274d0029a165627a7a72305820ff395941f0ad18275a7d36b6ac7e5d70247ebd0a7decdb7620913c008f4213aa0029",
  "source": "/*\n\n * source       https://github.com/mickys/zoomdev/\n\n * @name        List Contract\n * @package     ZoomDev\n * @author      Micky Socaci <micky@nowlive.ro>\n\n*/\n\npragma solidity 0.4.25;\n\nimport \"./Item.sol\";\n\n\ncontract ListingContract {\n\n    address public managerAddress;\n\n    struct Item {\n        string name;\n        address itemAddress;\n        bool    status;\n        uint256 index;\n    }\n\n    mapping ( uint256 => Item ) public items;\n    uint256 public itemNum = 0;\n\n    event EventNewChildItem(string _name, address _address, uint256 _index);\n\n    constructor() public {\n        managerAddress = msg.sender;\n    }\n\n    function addDummyRecord() external {\n        uint256 addItems = 1;\n        uint256 start = itemNum + 1;\n        uint256 max = start + addItems;\n\n        for (uint256 i = start; i < max; i++) {\n            ItemEntity newItem = new ItemEntity(appendUintToString(\"Item Name \", i), addAddress(uint8(i)));\n            addItem(newItem.getName(), address(newItem));\n        }\n    }\n\n    function addItem(string _name, address _address) public {\n        require(msg.sender == managerAddress, \"Sender must be manager address\");\n\n        Item storage child = items[++itemNum];\n        child.name = _name;\n        child.itemAddress = _address;\n        child.status = true;\n        child.index = itemNum;\n\n        emit EventNewChildItem(_name, _address, itemNum);\n    }\n\n    function getChildStatus( uint256 _childId ) public view returns (bool) {\n        Item memory child = items[_childId];\n        return child.status;\n    }\n\n    // update so that this checks the child status, and only delists IF funding has not started yet.\n    function delistChild( uint256 _childId ) public {\n        require(items[_childId].status == true && msg.sender == managerAddress, \"Item needs to have status true\");\n\n        Item storage child = items[_childId];\n        child.status = false;\n    }\n\n    function uintToString(uint v) internal pure returns (string) {\n        uint maxlength = 100;\n        bytes memory reversed = new bytes(maxlength);\n        uint i = 0;\n        uint w = v;\n        while (w != 0) {\n            uint remainder = w % 10;\n            w = w / 10;\n            reversed[i++] = byte(48 + remainder);\n        }\n        bytes memory s = new bytes(i);\n        for (uint j = 0; j < i; j++) {\n            s[j] = reversed[i - 1 - j];\n        }\n        return string(s);\n    }\n\n    function appendUintToString(string inStr, uint v) internal pure returns (string) {\n        uint maxlength = 100;\n        bytes memory reversed = new bytes(maxlength);\n        uint i = 0;\n        uint w = v;\n        while (w != 0) {\n            uint remainder = w % 10;\n            w = w / 10;\n            reversed[i++] = byte(48 + remainder);\n        }\n        bytes memory inStrb = bytes(inStr);\n        bytes memory s = new bytes(inStrb.length + i);\n        uint j;\n        for (j = 0; j < inStrb.length; j++) {\n            s[j] = inStrb[j];\n        }\n        for (j = 0; j < i; j++) {\n            s[j + inStrb.length] = reversed[i - 1 - j];\n        }\n        return string(s);\n    }\n\n    function addAddress(uint8 i) internal pure returns (address) {\n\n        bytes memory addrBytes = new bytes(20);\n        assembly {\n            for { let n := 0 } lt(n, 19 ) { n := add(n, 1) } {\n                mstore8( add( add( addrBytes, 32), n), 0x00 )\n            }\n            mstore8( add( add( addrBytes, 32), 19), i )\n        } \n        \n        return bytesToAddr(addrBytes);\n    }\n    \n    function bytesToAddr (bytes b) internal pure returns (address) {\n        uint result = 0;\n        for (uint i = b.length-1; i+1 > 0; i--) {\n            uint256 c = uint256(b[i]);\n            uint256 toInc = c * (16 ** ((b.length - i-1) * 2));\n            result += toInc;\n        }\n        return address(result);\n    }\n\n}",
  "sourcePath": "/Volumes/Dev/blockbits/zoomdev/contracts/ListContract.sol",
  "compiler": {
    "name": "solc",
    "version": "0.4.25+commit.59dbf8f1.Emscripten.clang"
  },
  "schemaVersion": "3.0.0-beta.1",
  "updatedAt": "2018-10-24T04:27:35.673Z"
}