{
  "contractName": "ZoomTest",
  "abi": [
    {
      "inputs": [],
      "payable": false,
      "stateMutability": "nonpayable",
      "type": "constructor"
    },
    {
      "constant": true,
      "inputs": [
        {
          "name": "toAddr",
          "type": "address"
        },
        {
          "name": "inputData",
          "type": "bytes"
        }
      ],
      "name": "combineCalls",
      "outputs": [
        {
          "name": "",
          "type": "bytes"
        }
      ],
      "payable": false,
      "stateMutability": "view",
      "type": "function"
    }
  ],
  "bytecode": "0x608060405234801561001057600080fd5b50610295806100206000396000f300608060405260043610610041576000357c0100000000000000000000000000000000000000000000000000000000900463ffffffff1680634e43ca3314610046575b600080fd5b34801561005257600080fd5b506100cd600480360381019080803573ffffffffffffffffffffffffffffffffffffffff169060200190929190803590602001908201803590602001908080601f0160208091040260200160405190810160405280939291908181526020018383808284378201915050505050509192919290505050610148565b6040518080602001828103825283818151815260200191508051906020019080838360005b8381101561010d5780820151818401526020810190506100f2565b50505050905090810190601f16801561013a5780820380516001836020036101000a031916815260200191505b509250505060405180910390f35b6060600060606000915060016040519080825280601f01601f1916602001820160405280156101865781602001602082028038833980820191505090505b509050602084015160001a601e830153602084015160011a601f8301536020825102915081815260005b602083048110156101d2576000602082026020840101526001810190506101b0565b5059604052604051600081526020810160405260005b6020840481101561025c57600160058202016021018601600081015160001a6000840153600181015160001a6001840153600281015160001a6002840153600381015160001a60038401536000806004858b6207a120fa60208302602086010160206000823e5050506001810190506101e8565b50508092505050929150505600a165627a7a7230582072eab9385d76fd710fff66080cf95d721c27c2a04b6ad8d71d9764e689b5173c0029",
  "source": "pragma solidity 0.4.25;\n\n/*\n\n * @package     BlockBitsIO\n * @author      Micky Socaci <micky@nowlive.ro>\n\n    Generic ABI Batch caller that returns a ( 32 byte * input[num] ) length  byte buffer \n\n    Deploy Cost: 961621 gas\n    Call Transaction cost: 56546 gas \n    \n    single transaction call: ~22000 gas\n    example call reduction: 93%\n    http requests: 1 instead of 19\n    \n\n// hex[num:2][method_sha3:4][return_type:1][method_sha3:4][return_type:2]\n// CallData: \n// 0013188ec3560119ee5bca02223fcbc9003072cf600030f7589000385fbe24004073002e0051fc6f590057945e3e006a\n// d49245007278d62300919baade0091fa055500961ffc6800b37edb6600b8109e1a00e8be2e8e00efdee94f00fa9d235200\n\n188ec35601 => 000000000000000000000000000000000000000000000000000000005b8bc24f\n19ee5bca02 => 000000000000000000000000766d1f049ba649f9a89ae417ba555599a6546b5a\n223fcbc900 => 0000000000000000000000000000000000000000000000000000000000000000  // bool false\n3072cf6000 => 0000000000000000000000000000000000000000000000000000000000000001\n30f7589000 => 000000000000000000000000b4e8d821b5b43fca08f5986d9b52a8dc00565cc5\n385fbe2400 => 0000000000000000000000005f03b7561e62efdab8b2fb740d83630d4d2710d7\n4073002e00 => 0000000000000000000000000000000000000000000000000000000000000009\n51fc6f5900 => 000000000000000000000000584af734a101538cad9b9522d1b9c87f1c08f9c4\n57945e3e00 => 0000000000000000000000000000000000000000000000000000000000000000  // bool false\n6ad4924500 => 000000000000000000000000b4007597da3402a1e2b69c8e1c6dd753d01a8035\n7278d62300 => 0000000000000000000000000000000000000000000000000000000000000096\n919baade00 => 0000000000000000000000005b2db92a43aa86fff2d9a3696a7ee264d03fc907\n91fa055500 => 0000000000000000000000003dfa93d0d80c9985c9c78ce3620bd0803767a95c\n961ffc6800 => 0000000000000000000000003dfa93d0d80c9985c9c78ce3620bd0803767a95c\nb37edb6600 => 00000000000000000000000058534c480ef96b6478940f9bbf6748da8f2ec935\nb8109e1a00 => 000000000000000000000000b435c8dd6edd82918606f0b2d73970683806b004\ne8be2e8e00 => 0000000000000000000000007d88463cc6d0ba403d302204236898414db3251a\nefdee94f00 => 0000000000000000000000003a0d088acfbd75fcf182a3b25d470492952dc704\nfa9d235200 => 0000000000000000000000000000000000000000000000000000000000000000  // bool false\n\ncontract ApplicationEntity  {\n    \n    uint256 public  getTimestamp = 1535885903;\n    address public  BountyManagerEntity = 0x766d1F049ba649f9A89ae417BA555599a6546b5A;\n    bool public     _locked = false;\n    bool public     _initialized = true;\n    address public  MilestonesEntity = 0xb4e8D821b5b43fca08F5986D9B52A8DC00565CC5;\n    address public  ListingContractEntity = 0x5f03B7561e62eFDAb8B2fB740D83630D4D2710D7;\n    uint8 public    AssetCollectionNum = 9;\n    address public  TokenManagerEntity = 0x584af734A101538cAd9b9522D1B9C87f1c08F9c4;\n    bool public     anyAssetHasChanges = false;\n    address public  FundingManagerEntity = 0xb4007597dA3402a1E2B69c8E1c6DD753D01a8035;\n    uint8 public    CurrentEntityState = 150;\n    address public  ProposalsEntity = 0x5b2Db92a43Aa86FfF2D9A3696a7Ee264D03Fc907;\n    address public  getParentAddress = 0x3dFA93D0d80C9985c9c78cE3620bd0803767a95C;\n    address public  GatewayInterfaceAddress = 0x3dFA93D0d80C9985c9c78cE3620bd0803767a95C;\n    address public  FundingEntity = 0x58534C480ef96b6478940F9bBF6748DA8F2eC935;\n    address public  MeetingsEntity = 0xb435c8Dd6eDd82918606F0B2d73970683806b004;\n    address public  NewsContractEntity = 0x7D88463CC6D0Ba403D302204236898414db3251A;\n    address public  deployerAddress = 0x3a0d088AcfBd75fcf182A3B25D470492952dc704;\n    bool public hasRequiredStateChanges = false;\n\n}\n*/\n\ncontract ZoomTest {\n    \n    // ApplicationEntity public AE;\n    \n    constructor () public {\n        // AE = new ApplicationEntity();\n    }\n    \n    enum Types {\n        NONE,\n        UINT,\n        ADDRESS,\n        BYTES,\n        BOOL\n    }\n    \n    /*\n    function testCombine() public view returns (bytes memory) {\n\n        // hex[num:2][method_sha3:4][return_type:1][method_sha3:4][return_type:2]\n        // bytes memory callData = hex'000b188ec3560119ee5bca02223fcbc9003072cf600030f7589000385fbe24004073002e0051fc6f590057945e3e006ad49245007278d62300919baade0091fa055500961ffc6800b37edb6600b8109e1a00e8be2e8e00efdee94f00fa9d235200';\n        bytes memory callData = hex'0013188ec3560119ee5bca02223fcbc9003072cf600030f7589000385fbe24004073002e0051fc6f590057945e3e006ad49245007278d62300919baade0091fa055500961ffc6800b37edb6600b8109e1a00e8be2e8e00efdee94f00fa9d235200';\n        return combineCalls( address(AE), callData );\n    }\n    */\n\n    // function combine(address toAddr, bytes calldata inputData) external view returns (bytes memory, bytes memory, address) {\n    function combineCalls(address toAddr, bytes memory inputData) public view returns (bytes memory) {\n\n        uint16 size = 0;\n        bytes memory OutputBuffer = new bytes(1);\n\n        assembly {\n            // store size from input into local var\n            mstore8( add( size, 30 ), byte( 0, mload( add( inputData, 32) ) ) )\n            mstore8( add( size, 31 ), byte( 1, mload( add( inputData, 32) ) ) )\n\n            // compute expected data length\n            size := mul( mload(size), 32)\n\n             // store methods length into OutputBuffer\n            mstore( OutputBuffer, size )\n            \n            // allocate free space for OutputBuffer starting in data address space\n            for { let n := 0 } lt(n, div(size, 32) ) { n := add(n, 1) } {\n                mstore( add ( add (OutputBuffer, 32), mul( n, 32) ) , 0 )\n            }\n\n            // move free memory pointer \n            mstore(0x40, msize()) \n            \n            {\n                // Find empty storage location using \"free memory pointer\"\n                let callMem := mload(0x40)      \n                mstore(callMem, 0x00)\n                // move free mem pointer by 32\n                mstore(0x40, add(callMem, 32) )\n                \n                // external calls loop\n                for { let n := 0 } lt(n, div(size, 32) ) { n := add(n, 1) } {\n                    \n                    {\n    \n                        // prepare methodSig\n                        let sigDataPointer := add( inputData, add( 33, add( mul( n, 5 ), 1 ) ) )\n    \n                        // 4 bytes right zero padded \n                        mstore8( add(callMem, 0), byte( 0, mload( add( sigDataPointer, 0) ) ) )\n                        mstore8( add(callMem, 1), byte( 0, mload( add( sigDataPointer, 1) ) ) )\n                        mstore8( add(callMem, 2), byte( 0, mload( add( sigDataPointer, 2) ) ) )\n                        mstore8( add(callMem, 3), byte( 0, mload( add( sigDataPointer, 3) ) ) )\n                        \n                        let success := staticcall(      \n                                            500000,     \n                                            toAddr,     // To addr\n                                            callMem,    // Inputs are stored at location callMem\n                                            4,          // Inputs are 4 bytes long\n                                            0,          \n                                            0)          \n            \n                        let thisStorage := add( add(OutputBuffer, 32), mul( n, 32 ) ) \n    \n                        // copy result byte size from return value ( ignore first 32 bytes ) ( next 32 bytes )\n                        returndatacopy( thisStorage, 0, 32)\n\n                    }\n                }\n            }\n        }\n\n        return OutputBuffer;\n    }\n}",
  "sourcePath": "/Volumes/Dev/blockbits/zoomdev/contracts/Zoom.sol",
  "compiler": {
    "name": "solc",
    "version": "0.4.25+commit.59dbf8f1.Emscripten.clang"
  },
  "schemaVersion": "3.0.0-beta.1",
  "updatedAt": "2018-10-27T10:52:35.054Z"
}