{
  "contractName": "Zoom",
  "abi": [
    {
      "constant": true,
      "inputs": [
        {
          "name": "inputData",
          "type": "bytes"
        }
      ],
      "name": "combine",
      "outputs": [
        {
          "name": "",
          "type": "bytes"
        },
        {
          "name": "",
          "type": "bytes"
        }
      ],
      "payable": false,
      "stateMutability": "view",
      "type": "function"
    }
  ],
  "bytecode": "0x608060405234801561001057600080fd5b50610377806100206000396000f300608060405260043610610041576000357c0100000000000000000000000000000000000000000000000000000000900463ffffffff168063124542e314610046575b600080fd5b34801561005257600080fd5b506100ad600480360381019080803590602001908201803590602001908080601f0160208091040260200160405190810160405280939291908181526020018383808284378201915050505050509192919290505050610194565b604051808060200180602001838103835285818151815260200191508051906020019080838360005b838110156100f15780820151818401526020810190506100d6565b50505050905090810190601f16801561011e5780820380516001836020036101000a031916815260200191505b50838103825284818151815260200191508051906020019080838360005b8381101561015757808201518184015260208101905061013c565b50505050905090810190601f1680156101845780820380516001836020036101000a031916815260200191505b5094505050505060405180910390f35b606080606080606060208601600381015160001a610100600283015160001a020159604052604051945060408102855260005b600282028110156101e9576000602082026020880101526001810190506101c7565b5059604052604051935060208102845260005b8181101561021b576000602082026020870101526001810190506101fc565b5060068201915059604052602060405101925060006020840160005b8381101561032e57600285015160001a610100600187015160001a020160008052855160001a6002811461028857600887019650600160146101000a03600c880351166000526014870196506102da565b600487015160001a610100600389015160001a02016040810260208c0101600689015160001a61010060058b015160001a0201600160146101000a03600c8284510103511660005260088a0199505050505b506000516000808389846207a120fa3d6000863e846040850260208d0101523d6040850260408d01015282880197503d850194503d860195503d86036020850260208c010152505050600181019050610237565b5081855260208101604052505050508082945094505050509150915600a165627a7a72305820424bfd71c55903f93dffc9d55aa8311747439bbf544d10b57e92658f09060cd30029",
  "source": "/*\n \n * source       https://github.com/MCROEngineering/zoom/\n * @name        Zoom Contract\n * @package     ZoomDev\n * @author      Micky Socaci <micky@mcro.tech>\n * @license     MIT\n\n Generic ABI Batch caller \n\n*/\n\npragma solidity ^0.4.25;\n\n\ncontract Zoom {\n    \n    function combine(bytes memory inputData) public view returns (bytes memory, bytes memory) {\n\n        // 0x00 - we use for scratch memory\n        // 0x20 - not used\n        // 0x40 - free memory pointer\n\n        // holds call result pointer addresses that we use to load reference \n        // call addresses, and populate \"resultAddresses\" and \"OutputBuffer\"\n        // 1st word: address address\n        // 2nd word: uint256 length\n        bytes memory internalAddresses; \n        \n        // holds result \"start\" addresses and their length in output buffer\n        bytes memory resultOffsets; \n        \n        // binary continuous buffer containing the resulting call values\n        bytes memory OutputBuffer;\n\n        assembly {\n            \n            // [0-1] version\n            // [2-3] number of calls\n\n            // add 32 since input is treated as a variable\n            let ptr := add( inputData, 32 )\n\n            // get number of calls -> mul first byte by 256 and add the rest from byte 2\n            let callnum := add(\n                mul( byte( 0, mload( add( ptr, 2 ) ) ), 256),\n                byte( 0, mload( add( ptr, 3 ) ) )\n            )\n\n            // move free memory pointer\n            mstore(0x40, msize()) \n            \n            // move and resize internalAddresses in new memory\n            internalAddresses := mload(0x40)\n\n            // store length in first 32 bytes\n            mstore(\n                internalAddresses,\n                // 64 bytes for each result.. 32 address / 32 length\n                mul( callnum, 64 )\n            ) \n    \n            // allocate free space for internalAddresses\n            for { let n := 0 } lt(n, mul(callnum, 2)) { n := add(n, 1) } {\n                mstore( \n                    add ( \n                        add (internalAddresses, 32), // offset by 32 ( len )\n                        mul( n, 32) \n                    ),\n                    0\n                )\n            }\n\n            // move free memory pointer\n            mstore(0x40, msize()) \n\n            // move and resize resultOffsets in new memory\n            resultOffsets := mload(0x40)\n\n            // store length in first 32 bytes\n            mstore(\n                resultOffsets,\n                // 32 bytes for each result.. as we want to be able to just mstore / mload\n                mul( callnum, 32 )\n            ) \n    \n            // allocate free space for resultOffsets starting in data address space\n            for { let n := 0 } lt(n, callnum) { n := add(n, 1) } {\n                mstore( \n                    add ( \n                        add (resultOffsets, 32), // offset by 32 ( len )\n                        mul( n, 32) \n                    ),\n                    0\n                )\n            }\n\n            // shift pointer to call start\n            ptr := add( ptr, 6 )\n\n            // move free memory pointer\n            mstore(0x40, msize()) \n            \n            // move OutputBuffer to free memory space\n            OutputBuffer := add( mload(0x40), 32)\n\n            // save length so we can set it in OutputBuffer\n            let actualResultLength := 0\n\n            // set write pointer \n            let thisOutputPointer := add( OutputBuffer, 32)\n            \n            // process calls \n            for { let callNumber := 0 } lt(callNumber, callnum) { callNumber := add(callNumber, 1) } {\n\n                // get call data length in bytes [1-2]\n                let dataLength := add(\n                    mul( byte( 0, mload( add( ptr, 1 ) ) ), 256),\n                    byte( 0, mload( add( ptr, 2 ) ) )\n                )\n\n                // clean up 0-32 byte scratch area so we can store a new address\n                mstore( 0x00 , 0x0000000000000000000000000000000000000000000000000000000000000000 )\n                \n                // call type cases\n                switch byte( 0, mload( ptr ) )\n                case 2 {\n                    \n                    // read result_id where the \"to address\" is expected ( bytes[3-4] )\n                    let result_id := add(\n                        mul( byte( 0, mload( add( ptr, 3 ) ) ), 256),\n                        byte( 0, mload( add( ptr, 4 ) ) )\n                    )\n                    \n                    // find our result's address space\n                    let resultStartAddress := add(\n                        // shift pointer by 32 bytes, to data space\n                        add(internalAddresses, 32),\n                        // now multiply by 2 words ( record size )\n                        mul( result_id, 64)\n                    )\n                    \n                    // read offset for the result ( bytes[5-6] )\n                    let offset := add(\n                        mul( byte( 0, mload( add( ptr, 5 ) ) ), 256),\n                        byte( 0, mload( add( ptr, 6 ) ) )\n                    )\n    \n                    // load the contract address we're going to \"call\"\n                    mstore (0x00, \n                        and( \n                            // load 32 bytes, 12 garbage + 20 address\n                            mload( \n                                sub( \n                                    add( \n                                        mload(resultStartAddress), \n                                    offset),\n                                12) \n                            ),\n                            // 20 byte address \"bytemask\"\n                            sub( exp(256, 20), 1 )\n                        )\n                    )\n                   \n                    // shift pointer by 8 bytes, to call data space\n                    ptr := add( ptr, 8 )\n                }\n                default {\n                    // type 1 contains address in the next 20 bytes bytes [8-28]\n                    // shift pointer by 8 bytes, to address space\n                    ptr := add( ptr, 8 )\n\n                    // load the contract address we're going to \"call\"\n                    mstore (0x00, \n                        and( \n                            // load 32 bytes, 12 garbage + 20 address\n                            mload( \n                                sub(ptr, 12) \n                            ),\n                            // 20 byte address \"bytemask\"\n                            sub( exp(256, 20), 1 )\n                        )\n                    )\n                    \n                    // shift pointer by 20 bytes, to call data space\n                    ptr := add( ptr, 20 )\n\n                }\n                \n                // finally load our address into a stack variable that our call can use\n                let toAddress := mload( 0x00 )\n\n                // do the call!\n                {\n                    let success := staticcall(      \n                                        500000,     \n                                        toAddress ,     // To addr\n                                        ptr,            // Inputs are stored at current ptr location\n                                        dataLength,     // input length\n                                        0,          \n                                        0)          \n        \n                    // copy result byte size from return value ( ignore first 32 bytes ) ( next 32 bytes )\n                    returndatacopy( \n                        thisOutputPointer,\n                        0, \n                        returndatasize() \n                    )\n                    \n                    // save result address in so we can easily reference it\n                    mstore( \n                        add(\n                            add( internalAddresses, 32),\n                            mul( callNumber, 64)\n                        ),\n                        thisOutputPointer\n                    )\n\n                    // save result length so we know how many bytes to read when\n                    // preparing return OutputBuffer\n                    mstore( \n                        add(\n                            add( internalAddresses, 64), // add 32 so we're in the result space\n                            mul( callNumber, 64)\n                        ),\n                        returndatasize() \n                    )\n                    \n                    // shift pointer by data length.. so we're at next call\n                    ptr := add( ptr, dataLength )\n\n                    // move write pointer \n                    thisOutputPointer := add(thisOutputPointer, returndatasize() )\n                    \n                    actualResultLength := add( actualResultLength, returndatasize() )\n\n                    // store result start offset\n                    mstore( \n                        add ( \n                            add(resultOffsets, 32), // offset by 32 bytes to data space\n                            mul(callNumber, 32) \n                        ),\n                        sub( actualResultLength, returndatasize() )\n                    )\n                }\n                \n            }\n            \n            // set result length for OutputBuffer\n            mstore(OutputBuffer, actualResultLength ) \n\n            // move free memory pointer so return does not overwrite our OutputBuffer\n            // msize() breaks here for some reason.. so we move free memory space\n            // address by hand using the write pointer.\n            mstore(0x40, add( thisOutputPointer, 32 ) )\n        }\n        \n        return ( OutputBuffer, resultOffsets );\n    }\n}\n\n",
  "sourcePath": "/Volumes/Dev/blockbits/zoomdev/contracts/Zoom.sol",
  "compiler": {
    "name": "solc",
    "version": "0.4.25+commit.59dbf8f1.Emscripten.clang"
  },
  "schemaVersion": "3.0.0-beta.1",
  "updatedAt": "2018-12-14T06:25:26.968Z"
}